:0200000280007C
:1000000060260720ED050800E9050800E90508005D
:10001000E9050800E9050800E905080000000000FE
:10002000000000000000000000000000E9050800DA
:10003000E905080000000000E9050800E9050800DE
:10004000E9050800E9050800E9050800E9050800D8
:10005000E9050800E9050800E9050800E9050800C8
:10006000E9050800E9050800000000009104080007
:10007000A5040800B9040800CD0408000000000031
:1000800000000000E9050800E9050800E90508008E
:10009000E9050800E9050800E9050800E905080088
:1000A000E905080000000000E9050800E90508006E
:1000B000E9050800E9050800E9050800E905080068
:1000C000E9050800E9050800E9050800E905080058
:1000D000E9050800E9050800E9050800E905080048
:1000E000E9050800E9050800E9050800E905080038
:1000F000E905080010B5054C237833B9044B13B15A
:100100000448AFF300800123237010BDAC05072025
:1001100000000000380A08000C4B43B10C4810B531
:100120000C49AFF300800C48036823B910BD0A489E
:10013000036833B97047094B002BF7D0BDE8104076
:100140001847064B002BF5D0184700BF00000000F1
:10015000380A0800B0050720380A0800000000002F
:1001600010B50E480E4B98473E2100200D4B984786
:100170000D4CA0470028FCD00C4B98470C4A0D4B67
:100180009A620D4CA0470028FCD010200B4B9847DA
:100190000B4B98470148024B984710BD00BD010525
:1001A000B10007204505080099050800A9050800C9
:1001B000013F0D2000060E40B9050800E1040800CB
:1001C0008506080010B54FF40042124B5A600B2010
:1001D000114CA0470C20A0470D20A0470E20A0479F
:1001E0004FF060513B200D4CA0474FF0605155201F
:1001F000A0474FF060515620A04709496820A0470A
:1002000008495C20A047084A4FF440710748084B52
:10021000984710BD501A0E40C9050800D5020800C5
:10022000790000280100002801000008000E0E409F
:10023000A50308004264B1F1805F16D00BD849B124
:10024000B1F1006F05D1036F016F0B4023EA020388
:10025000036742607047B1F1405FFBD0B1F1605F6E
:10026000F8D0B1F1205FF4D17047036F13430367F7
:10027000EFE7416412F0010F14BF4166016612F00E
:100280000A0F14BF0162416212F0020F07D112F08F
:10029000080F18BFC0F88410416101607047C0F8B2
:1002A0008010F9E710B4019C416444B9016643B180
:1002B000016542B941630161016010BC704741664C
:1002C000F5E74165F5E70163F5E7C06C7047806CC1
:1002D0007047000070B582B00D46430903F5001366
:1002E00003F207735C0201F0F043B3F1205F31D0F9
:1002F00016D8B3F1006F1BD0B3F1805F16D100F0B8
:100300001F000126864032464FF080512046224B86
:10031000984715F0010F14BF66662666012017E0A6
:10032000B3F1405F21D0B3F1605F1ED000200FE039
:1003300000F01F000126864032464FF00061204643
:10034000154B984715F0010F14BF6666266601200D
:1003500002B070BD00F01F0101262A4606FA01F125
:1003600020460E4B98473046F2E705F0605200F009
:100370001F01012605EA06030093C5F38003B2F1CD
:10038000605F14BF0022012206FA01F12046044CEE
:10039000A0473046DCE700BF3502080073020800C2
:1003A000A502080070B582B005460E46144602F05C
:1003B000F043B3F1205F27D011D8B3F1006F16D00E
:1003C000B3F1805F11D10A464FF08051194B984725
:1003D00014F0010F14BF6E662E66012012E0B3F117
:1003E000405F15D0B3F1605F12D000200AE00A46EA
:1003F0004FF000610F4B984714F0010F14BF6E6669
:100400002E66012002B070BD0B4B98470120F9E722
:1004100004F0605204F001030093C4F38003B2F1CE
:10042000605F14BF0022012231462846034CA047DA
:100430000120E7E73502080073020800A502080062
:100440002DE9F041044688460E4B98470546204664
:100450000D4B9847054013D00C4C04F1600603E0A7
:10046000B4420DD010345DB120684045F8D16168C8
:100470002942F5D0E3689847636825EA0305EFE76A
:10048000BDE8F081CB020800CF020800C8050720B4
:1004900008B50B210148024B984708BD000E0E40DD
:1004A0004104080008B50C210148024B984708BDDB
:1004B00000100E404104080008B50D210148024B10
:1004C000984708BD00120E404104080008B50E21EF
:1004D0000148024B984708BD00140E404104080033
:1004E000174A136B23F0700318431063936E13F0D5
:1004F000080F0AD14FF4006311498A6E12F0080FF9
:1005000003D1013BF9D1012070470D4A136B23F051
:10051000030343F002031363936E13F0080F0AD131
:100520004FF4006306498A6E12F0080F05D1013BB3
:10053000F9D101207047002070470020704700BFAC
:1005400000060E40C8B9114A136A090289B223F4A1
:100550005C1323F0030343F45C1343F001030B43E8
:100560001362936E13F0010FFBD0084A136A43F035
:100570009B7343F480331362704704490B6A044A47
:100580001A40044B13430B62704700BF00060E4035
:10059000FCFFC8FE02003701024B986E00F4803069
:1005A000704700BF00060E404FF00052014B9A62A8
:1005B000704700BF00060E40024B986E00F002002C
:1005C000704700BF00060E4000F07F00054BC3F8E7
:1005D0000C01D3F80C2142F01022C3F80C210020AA
:1005E000704700BF00060E40FEE7000008B51C4B38
:1005F0001C4A9A4210D01C4B194A9A420CD2013B19
:100600009B1A23F0030304331344164951F8040BD7
:1006100042F8040B9A42F9D1144B154A9A420AD275
:10062000013B9B1A23F0030304331344002142F8D7
:10063000041B9342FBD10F4B23F0604222F07F0258
:100640000D498A6003F16043B3F5801F03D28B68C4
:1006500043F000538B60094B9847094B9847FEE7DE
:1006600000000720380A0800AC0507205C060720B8
:10067000AC0507200000080000ED00E0A10808001C
:100680009D0708003D4B1B6B03F00303032B0ED8A3
:10069000DFE803F0021C3838394B5B6913F0800F38
:1006A00014BF4FF400424FF4FA42364B1A60334BFA
:1006B0001B6B03F07003702B57D0304B1A6B314912
:1006C000C2F302120B68D3400B6070472B4B1B6ABE
:1006D00013F0807F03D02C4A2A4B1A60E7E72B4A9D
:1006E000284B1A60254B1B6A03F07003102B05D0B2
:1006F000202BDCD1244A234B1A60D8E7244A214B13
:100700001A60D4E71D4B1B6A13F0807F0CD01E4A81
:100710001C4B1A60194B1B6B03F00303022B16D002
:100720001C4A184B1A60C2E7184A164B1A60134B42
:100730001B6A03F07003102B05D0202BEAD1124A5C
:10074000104B1A60E6E7124A0E4B1A60E2E70B4ABA
:10075000916A926A0B48C1F30A41036801FB0333B3
:10076000D2B2B3FBF2F30360A1E7064A13680A4969
:10077000A1FB03135B081360704700BF00060E4027
:10078000101A0E4038010720001BB70000093D0079
:1007900000127A00001C4E0EABAAAAAA70B52A4B12
:1007A00098472A4B98472A4B1A684FF0006313600A
:1007B000284A12681360284B1B6800221A60274BD6
:1007C0001A684FF0FF331360254A12681360254BF7
:1007D0001B68254A1A60254B1B6850221A60244B5F
:1007E0001B6840F601021A60224B1B684FF40C7222
:1007F0001A60214B1B6825221A60204B1B684FF49E
:10080000F0121A601E4B1B681E4A1A601E4B1B68B2
:1008100001221A601D4B1B6802221A60164C1C4EE6
:100820001C4D236825221A602B681B7832681360E0
:10083000194A12681360236802221A604EF660207B
:10084000164B9847EDE700BF61010800C50108009D
:1008500074010720680107206C0107207001072040
:10086000780107207C01072000014008580107207B
:100870005C01072054010720440107204C01072098
:1008800048010720FFFF07003C0107204001072027
:1008900064010720600107205001072001000720A4
:1008A00070B50F4E0F4D761BB61018BF002405D043
:1008B000013455F8043B9847A642F9D10A4E0B4D36
:1008C00000F0A8F8761BB61018BF002406D001343B
:1008D00055F8043B9847A642F9D170BD70BD00BFE2
:1008E000200A0800200A0800280A0800200A080038
:1008F000024B13B1024800F005B870470000000039
:1009000011090800002301461A46184600F01EB8D7
:1009100038B50A4C0A4D641BA4100AD004F1804378
:10092000013B05EB8305013C55F804399847002C41
:10093000F9D1BDE8384000F077B800BF380A0800A8
:10094000340A0800704700BF704700BF2DE9F84324
:100950002C4D0646286898460F469146FFF7F2FF51
:10096000294B1C68D4F84831002B3ED05A681F2A06
:100970001CDC02F1010E76B1012103EB8204C4F804
:100980008890D3F8880191400843022EC3F888016B
:10099000C4F8088123D00232C3F804E0286843F881
:1009A0002270FFF7D1FF0020BDE8F883174B0BB38F
:1009B0004FF4C870AFF300800346D8B10020D4F8DC
:1009C00048114FF0010E586019600246C4F84831D2
:1009D000C3F88801C3F88C01002EDCD0CCE7D3F833
:1009E0008C010143C3F88C11D5E704F5A673C4F854
:1009F0004831BBE72868FFF7A7FF4FF0FF30BDE89D
:100A0000F88300BFA8050720100A080000000000B6
:100A100080010720F8B500BFF8BC08BC9E467047AF
:100A2000F108080019010800F8B500BFF8BC08BCBF
:080A30009E467047F500080026
:100A3800BFF35F8F0138FBD1704700004FF480632C
:100A4800204A136002F5007213601F4B1B6A13F0F3
:100A5800807F07D11D4A1C4B1A621A46936E13F009
:100A6800010FFBD01A4A184B1A621A46936E13F4F8
:100A7800803FFBD0144A136B23F0030343F00103B8
:100A88001363936E13F0080FFBD0124A0E4B9A6251
:100A98001A46936E13F0020FFBD011220A4B1A6309
:100AA8001A46936E13F0080FFBD01222064B1A63F6
:100AB8001A46936E13F0080FFBD0074A074B1A60CB
:100AC800704700BF000A0E4000060E4009083700B4
:100AD80009083701013F0D2000BD01053801072035
:100AE8001B4B984215D91B4B984219D91A4B98425F
:100AF8001ED91A4B984223D9194B984294BF4FF4E8
:100B080080634FF4A063174A136002F50072136004
:100B180070470023134A136002F500721360704790
:100B28004FF480730F4A136002F500721360704728
:100B38004FF400730B4A136002F50072136070479C
:100B48004FF44073074A136002F500721360704750
:100B5800BFEA21017FF0FA02FF8FD003FFB3C4047C
:100B68007F4A5D05000A0E4000093D00000008406C
:100B78000400084000C0084010C0084004C00840F5
:100B880034C0084020080E4000080E4004080E40FB
:100B980018080E401C080E4010100E40700E0E4033
:100BA800040E0E4000100E40600E0E4010060E405F
:100BB800000000006C040720D40407203C0507202F
:100BC800000000000000000000000000000000001D
:100BD800000000000000000000000000000000000D
:100BE80000000000000000000000000000000000FD
:100BF80000000000000000000000000000000000ED
:100C080000000000000000000000000000000000DC
:100C180000000000000000000000000000000000CC
:100C280000000000000000000000000000000000BC
:100C380000000000000000000000000000000000AC
:100C4800000000000000000000000000000000009C
:100C5800000000000000000001000000000000008B
:100C68000E33CDAB34126DE6ECDE05000B00000050
:100C7800000000000000000000000000000000006C
:100C8800000000000000000000000000000000005C
:100C9800000000000000000000000000000000004C
:100CA800000000000000000000000000000000003C
:0C0FD800000000000000000038060720A8
:04000003800005ED87
:00000001FF
